{
    "_format": "hh-sol-artifact-1",
    "contractName": "Transaction",
    "sourceName": "contracts/Transaction.sol",
    "abi": [
        {
            "anonymous": false,
            "inputs": [
                {
                    "indexed": false,
                    "internalType": "address",
                    "name": "from",
                    "type": "address"
                },
                {
                    "indexed": false,
                    "internalType": "address",
                    "name": "receiver",
                    "type": "address"
                },
                {
                    "indexed": false,
                    "internalType": "uint256",
                    "name": "amount",
                    "type": "uint256"
                },
                {
                    "indexed": false,
                    "internalType": "string",
                    "name": "message",
                    "type": "string"
                },
                {
                    "indexed": false,
                    "internalType": "uint256",
                    "name": "timestamp",
                    "type": "uint256"
                },
                {
                    "indexed": false,
                    "internalType": "string",
                    "name": "keyword",
                    "type": "string"
                }
            ],
            "name": "Transfer",
            "type": "event"
        },
        {
            "inputs": [
                {
                    "internalType": "address payable",
                    "name": "receiver",
                    "type": "address"
                },
                {
                    "internalType": "uint256",
                    "name": "amount",
                    "type": "uint256"
                },
                {
                    "internalType": "string",
                    "name": "message",
                    "type": "string"
                },
                {
                    "internalType": "string",
                    "name": "keyword",
                    "type": "string"
                }
            ],
            "name": "addToBlockchain",
            "outputs": [],
            "stateMutability": "nonpayable",
            "type": "function"
        },
        {
            "inputs": [],
            "name": "getAllTransactions",
            "outputs": [
                {
                    "components": [
                        {
                            "internalType": "address",
                            "name": "sender",
                            "type": "address"
                        },
                        {
                            "internalType": "address",
                            "name": "receiver",
                            "type": "address"
                        },
                        {
                            "internalType": "uint256",
                            "name": "amount",
                            "type": "uint256"
                        },
                        {
                            "internalType": "string",
                            "name": "message",
                            "type": "string"
                        },
                        {
                            "internalType": "uint256",
                            "name": "timeStamp",
                            "type": "uint256"
                        },
                        {
                            "internalType": "string",
                            "name": "keyword",
                            "type": "string"
                        }
                    ],
                    "internalType": "struct Transaction.TransferStruct[]",
                    "name": "",
                    "type": "tuple[]"
                }
            ],
            "stateMutability": "view",
            "type": "function"
        },
        {
            "inputs": [],
            "name": "getTransactionCount",
            "outputs": [
                {
                    "internalType": "uint256",
                    "name": "",
                    "type": "uint256"
                }
            ],
            "stateMutability": "view",
            "type": "function"
        }
    ],
    "bytecode": "0x608060405234801561001057600080fd5b50610d8c806100206000396000f3fe608060405234801561001057600080fd5b50600436106100415760003560e01c806327506f53146100465780632e7700f014610064578063cc2d7ead14610082575b600080fd5b61004e61009e565b60405161005b91906106bd565b60405180910390f35b61006c6102e1565b60405161007991906106ee565b60405180910390f35b61009c600480360381019061009791906108bc565b6102e6565b005b60606000805480602002602001604051908101604052809291908181526020016000905b828210156102d857838290600052602060002090600602016040518060c00160405290816000820160009054906101000a900473ffffffffffffffffffffffffffffffffffffffff1673ffffffffffffffffffffffffffffffffffffffff1673ffffffffffffffffffffffffffffffffffffffff1681526020016001820160009054906101000a900473ffffffffffffffffffffffffffffffffffffffff1673ffffffffffffffffffffffffffffffffffffffff1673ffffffffffffffffffffffffffffffffffffffff168152602001600282015481526020016003820180546101ab9061098a565b80601f01602080910402602001604051908101604052809291908181526020018280546101d79061098a565b80156102245780601f106101f957610100808354040283529160200191610224565b820191906000526020600020905b81548152906001019060200180831161020757829003601f168201915b50505050508152602001600482015481526020016005820180546102479061098a565b80601f01602080910402602001604051908101604052809291908181526020018280546102739061098a565b80156102c05780601f10610295576101008083540402835291602001916102c0565b820191906000526020600020905b8154815290600101906020018083116102a357829003601f168201915b505050505081525050815260200190600101906100c2565b50505050905090565b600090565b60006040518060c001604052803373ffffffffffffffffffffffffffffffffffffffff1681526020018673ffffffffffffffffffffffffffffffffffffffff16815260200185815260200184815260200142815260200183815250908060018154018082558091505060019003906000526020600020906006020160009091909190915060008201518160000160006101000a81548173ffffffffffffffffffffffffffffffffffffffff021916908373ffffffffffffffffffffffffffffffffffffffff16021790555060208201518160010160006101000a81548173ffffffffffffffffffffffffffffffffffffffff021916908373ffffffffffffffffffffffffffffffffffffffff1602179055506040820151816002015560608201518160030190816104179190610b67565b506080820151816004015560a08201518160050190816104379190610b67565b5050507f416cfa4330a4565f45c2fd2dd4826a83a37443aba2ce6f79477c7355afac35fa33858585428660405161047396959493929190610ce7565b60405180910390a150505050565b600081519050919050565b600082825260208201905092915050565b6000819050602082019050919050565b600073ffffffffffffffffffffffffffffffffffffffff82169050919050565b60006104d8826104ad565b9050919050565b6104e8816104cd565b82525050565b6000819050919050565b610501816104ee565b82525050565b600081519050919050565b600082825260208201905092915050565b60005b83811015610541578082015181840152602081019050610526565b60008484015250505050565b6000601f19601f8301169050919050565b600061056982610507565b6105738185610512565b9350610583818560208601610523565b61058c8161054d565b840191505092915050565b600060c0830160008301516105af60008601826104df565b5060208301516105c260208601826104df565b5060408301516105d560408601826104f8565b50606083015184820360608601526105ed828261055e565b915050608083015161060260808601826104f8565b5060a083015184820360a086015261061a828261055e565b9150508091505092915050565b60006106338383610597565b905092915050565b6000602082019050919050565b600061065382610481565b61065d818561048c565b93508360208202850161066f8561049d565b8060005b858110156106ab578484038952815161068c8582610627565b94506106978361063b565b925060208a01995050600181019050610673565b50829750879550505050505092915050565b600060208201905081810360008301526106d78184610648565b905092915050565b6106e8816104ee565b82525050565b600060208201905061070360008301846106df565b92915050565b6000604051905090565b600080fd5b600080fd5b6000610728826104ad565b9050919050565b6107388161071d565b811461074357600080fd5b50565b6000813590506107558161072f565b92915050565b610764816104ee565b811461076f57600080fd5b50565b6000813590506107818161075b565b92915050565b600080fd5b600080fd5b7f4e487b7100000000000000000000000000000000000000000000000000000000600052604160045260246000fd5b6107c98261054d565b810181811067ffffffffffffffff821117156107e8576107e7610791565b5b80604052505050565b60006107fb610709565b905061080782826107c0565b919050565b600067ffffffffffffffff82111561082757610826610791565b5b6108308261054d565b9050602081019050919050565b82818337600083830152505050565b600061085f61085a8461080c565b6107f1565b90508281526020810184848401111561087b5761087a61078c565b5b61088684828561083d565b509392505050565b600082601f8301126108a3576108a2610787565b5b81356108b384826020860161084c565b91505092915050565b600080600080608085870312156108d6576108d5610713565b5b60006108e487828801610746565b94505060206108f587828801610772565b935050604085013567ffffffffffffffff81111561091657610915610718565b5b6109228782880161088e565b925050606085013567ffffffffffffffff81111561094357610942610718565b5b61094f8782880161088e565b91505092959194509250565b7f4e487b7100000000000000000000000000000000000000000000000000000000600052602260045260246000fd5b600060028204905060018216806109a257607f821691505b6020821081036109b5576109b461095b565b5b50919050565b60008190508160005260206000209050919050565b60006020601f8301049050919050565b600082821b905092915050565b600060088302610a1d7fffffffffffffffffffffffffffffffffffffffffffffffffffffffffffffffff826109e0565b610a2786836109e0565b95508019841693508086168417925050509392505050565b6000819050919050565b6000610a64610a5f610a5a846104ee565b610a3f565b6104ee565b9050919050565b6000819050919050565b610a7e83610a49565b610a92610a8a82610a6b565b8484546109ed565b825550505050565b600090565b610aa7610a9a565b610ab2818484610a75565b505050565b5b81811015610ad657610acb600082610a9f565b600181019050610ab8565b5050565b601f821115610b1b57610aec816109bb565b610af5846109d0565b81016020851015610b04578190505b610b18610b10856109d0565b830182610ab7565b50505b505050565b600082821c905092915050565b6000610b3e60001984600802610b20565b1980831691505092915050565b6000610b578383610b2d565b9150826002028217905092915050565b610b7082610507565b67ffffffffffffffff811115610b8957610b88610791565b5b610b93825461098a565b610b9e828285610ada565b600060209050601f831160018114610bd15760008415610bbf578287015190505b610bc98582610b4b565b865550610c31565b601f198416610bdf866109bb565b60005b82811015610c0757848901518255600182019150602085019450602081019050610be2565b86831015610c245784890151610c20601f891682610b2d565b8355505b6001600288020188555050505b505050505050565b610c42816104cd565b82525050565b6000610c63610c5e610c59846104ad565b610a3f565b6104ad565b9050919050565b6000610c7582610c48565b9050919050565b6000610c8782610c6a565b9050919050565b610c9781610c7c565b82525050565b600082825260208201905092915050565b6000610cb982610507565b610cc38185610c9d565b9350610cd3818560208601610523565b610cdc8161054d565b840191505092915050565b600060c082019050610cfc6000830189610c39565b610d096020830188610c8e565b610d1660408301876106df565b8181036060830152610d288186610cae565b9050610d3760808301856106df565b81810360a0830152610d498184610cae565b905097965050505050505056fea264697066735822122071ac36a999f55ff5073dc49aa19ad4e7ff3d601afa673d38a944e251c5a4bf9864736f6c63430008130033",
    "linkReferences": {},
    "deployedLinkReferences": {}
}